{
  "contractName": "Staking",
  "abi": [
    {
      "inputs": [
        {
          "internalType": "address",
          "name": "",
          "type": "address"
        }
      ],
      "name": "stakingBalance",
      "outputs": [
        {
          "internalType": "uint256",
          "name": "",
          "type": "uint256"
        }
      ],
      "stateMutability": "view",
      "type": "function"
    },
    {
      "inputs": [
        {
          "internalType": "address",
          "name": "",
          "type": "address"
        }
      ],
      "name": "timeStamp",
      "outputs": [
        {
          "internalType": "uint256",
          "name": "",
          "type": "uint256"
        }
      ],
      "stateMutability": "view",
      "type": "function"
    },
    {
      "inputs": [],
      "name": "token",
      "outputs": [
        {
          "internalType": "contract Token",
          "name": "",
          "type": "address"
        }
      ],
      "stateMutability": "view",
      "type": "function"
    },
    {
      "inputs": [],
      "name": "totalStaked",
      "outputs": [
        {
          "internalType": "uint256",
          "name": "",
          "type": "uint256"
        }
      ],
      "stateMutability": "view",
      "type": "function"
    },
    {
      "inputs": [
        {
          "internalType": "uint256",
          "name": "_amount",
          "type": "uint256"
        }
      ],
      "name": "deposit",
      "outputs": [],
      "stateMutability": "nonpayable",
      "type": "function"
    },
    {
      "inputs": [],
      "name": "withdraw",
      "outputs": [
        {
          "internalType": "uint256",
          "name": "",
          "type": "uint256"
        }
      ],
      "stateMutability": "nonpayable",
      "type": "function"
    }
  ],
  "bytecode": "0x608060405234801561001057600080fd5b50610bbc806100206000396000f3fe608060405234801561001057600080fd5b50600436106100725760003560e01c8063817b1cd211610050578063817b1cd2146100f5578063b6b55f2514610113578063fc0c546a1461012f57610072565b806335150504146100775780633ccfd60b146100a757806345bc78ab146100c5575b600080fd5b610091600480360381019061008c91906106ab565b61014d565b60405161009e91906106f1565b60405180910390f35b6100af610165565b6040516100bc91906106f1565b60405180910390f35b6100df60048036038101906100da91906106ab565b61035b565b6040516100ec91906106f1565b60405180910390f35b6100fd610373565b60405161010a91906106f1565b60405180910390f35b61012d60048036038101906101289190610738565b610379565b005b610137610624565b60405161014491906107c4565b60405180910390f35b60036020528060005260406000206000915090505481565b600080600260003373ffffffffffffffffffffffffffffffffffffffff1673ffffffffffffffffffffffffffffffffffffffff168152602001908152602001600020549050600081116101ed576040517f08c379a00000000000000000000000000000000000000000000000000000000081526004016101e49061083c565b60405180910390fd5b6000600360003373ffffffffffffffffffffffffffffffffffffffff1673ffffffffffffffffffffffffffffffffffffffff168152602001908152602001600020544261023a919061088b565b8261024591906108bf565b905060008054906101000a900473ffffffffffffffffffffffffffffffffffffffff1673ffffffffffffffffffffffffffffffffffffffff1663a9059cbb3383856102909190610919565b6040518363ffffffff1660e01b81526004016102ad92919061097e565b6020604051808303816000875af11580156102cc573d6000803e3d6000fd5b505050506040513d601f19601f820116820180604052508101906102f091906109df565b50816001546102ff919061088b565b6001819055506000600260003373ffffffffffffffffffffffffffffffffffffffff1673ffffffffffffffffffffffffffffffffffffffff168152602001908152602001600020505080826103549190610919565b9250505090565b60026020528060005260406000206000915090505481565b60015481565b600081116103bc576040517f08c379a00000000000000000000000000000000000000000000000000000000081526004016103b390610a58565b60405180910390fd5b8060008054906101000a900473ffffffffffffffffffffffffffffffffffffffff1673ffffffffffffffffffffffffffffffffffffffff1663dd62ed3e33306040518363ffffffff1660e01b8152600401610418929190610a78565b602060405180830381865afa158015610435573d6000803e3d6000fd5b505050506040513d601f19601f820116820180604052508101906104599190610ab6565b101561049a576040517f08c379a000000000000000000000000000000000000000000000000000000000815260040161049190610b2f565b60405180910390fd5b60008054906101000a900473ffffffffffffffffffffffffffffffffffffffff1673ffffffffffffffffffffffffffffffffffffffff166323b872dd3330846040518463ffffffff1660e01b81526004016104f793929190610b4f565b6020604051808303816000875af1158015610516573d6000803e3d6000fd5b505050506040513d601f19601f8201168201806040525081019061053a91906109df565b50806001546105499190610919565b60018190555080600260003373ffffffffffffffffffffffffffffffffffffffff1673ffffffffffffffffffffffffffffffffffffffff1681526020019081526020016000205461059a9190610919565b600260003373ffffffffffffffffffffffffffffffffffffffff1673ffffffffffffffffffffffffffffffffffffffff1681526020019081526020016000208190555042600360003373ffffffffffffffffffffffffffffffffffffffff1673ffffffffffffffffffffffffffffffffffffffff1681526020019081526020016000208190555050565b60008054906101000a900473ffffffffffffffffffffffffffffffffffffffff1681565b600080fd5b600073ffffffffffffffffffffffffffffffffffffffff82169050919050565b60006106788261064d565b9050919050565b6106888161066d565b811461069357600080fd5b50565b6000813590506106a58161067f565b92915050565b6000602082840312156106c1576106c0610648565b5b60006106cf84828501610696565b91505092915050565b6000819050919050565b6106eb816106d8565b82525050565b600060208201905061070660008301846106e2565b92915050565b610715816106d8565b811461072057600080fd5b50565b6000813590506107328161070c565b92915050565b60006020828403121561074e5761074d610648565b5b600061075c84828501610723565b91505092915050565b6000819050919050565b600061078a6107856107808461064d565b610765565b61064d565b9050919050565b600061079c8261076f565b9050919050565b60006107ae82610791565b9050919050565b6107be816107a3565b82525050565b60006020820190506107d960008301846107b5565b92915050565b600082825260208201905092915050565b7f616d6f756e742068617320746f206265206d6f7265207468616e203000000000600082015250565b6000610826601c836107df565b9150610831826107f0565b602082019050919050565b6000602082019050818103600083015261085581610819565b9050919050565b7f4e487b7100000000000000000000000000000000000000000000000000000000600052601160045260246000fd5b6000610896826106d8565b91506108a1836106d8565b9250828210156108b4576108b361085c565b5b828203905092915050565b60006108ca826106d8565b91506108d5836106d8565b9250817fffffffffffffffffffffffffffffffffffffffffffffffffffffffffffffffff048311821515161561090e5761090d61085c565b5b828202905092915050565b6000610924826106d8565b915061092f836106d8565b9250827fffffffffffffffffffffffffffffffffffffffffffffffffffffffffffffffff038211156109645761096361085c565b5b828201905092915050565b6109788161066d565b82525050565b6000604082019050610993600083018561096f565b6109a060208301846106e2565b9392505050565b60008115159050919050565b6109bc816109a7565b81146109c757600080fd5b50565b6000815190506109d9816109b3565b92915050565b6000602082840312156109f5576109f4610648565b5b6000610a03848285016109ca565b91505092915050565b7f616d6f756e742063616e27742062652030000000000000000000000000000000600082015250565b6000610a426011836107df565b9150610a4d82610a0c565b602082019050919050565b60006020820190508181036000830152610a7181610a35565b9050919050565b6000604082019050610a8d600083018561096f565b610a9a602083018461096f565b9392505050565b600081519050610ab08161070c565b92915050565b600060208284031215610acc57610acb610648565b5b6000610ada84828501610aa1565b91505092915050565b7f4e6f7420617070726f76656420666f72207472616e7366726f6d000000000000600082015250565b6000610b19601a836107df565b9150610b2482610ae3565b602082019050919050565b60006020820190508181036000830152610b4881610b0c565b9050919050565b6000606082019050610b64600083018661096f565b610b71602083018561096f565b610b7e60408301846106e2565b94935050505056fea26469706673582212203f9c0a2486f84f51170a4e1ef47a495c6fca9b113b7b887edaffda6153d33a1a64736f6c634300080b0033",
  "immutableReferences": {},
  "source": "// SPDX-License-Identifier: MIT\r\npragma solidity 0.8.11;\r\n\r\nimport \"./Token.sol\";\r\n\r\ncontract Staking {\r\n    Token public token;\r\n\r\n    // declaring total staked\r\n    uint256 public totalStaked;\r\n\r\n    // users staking balance\r\n    mapping(address => uint256) public stakingBalance;\r\n    mapping(address => uint256) public timeStamp;\r\n\r\n    function deposit(uint256 _amount) public {\r\n        // must be more than 0\r\n        require(_amount > 0, \"amount can't be 0\");\r\n        // User adding test tokens\r\n        require(\r\n            token.allowance(msg.sender, address(this)) >= _amount,\r\n            \"Not approved for transfrom\"\r\n        );\r\n        token.transferFrom(msg.sender, address(this), _amount);\r\n\r\n        totalStaked = totalStaked + _amount;\r\n\r\n        // updating staking balance for user by mapping\r\n        stakingBalance[msg.sender] = stakingBalance[msg.sender] + _amount;\r\n        timeStamp[msg.sender] = block.timestamp;\r\n    }\r\n\r\n    function withdraw() public returns (uint256) {\r\n        // get staking balance for user\r\n        uint256 balance = stakingBalance[msg.sender];\r\n\r\n        // amount should be more than 0\r\n        require(balance > 0, \"amount has to be more than 0\");\r\n\r\n        uint256 reward = balance * (block.timestamp - timeStamp[msg.sender]);\r\n\r\n        // transfer staked tokens back to user\r\n        token.transfer(msg.sender, balance + reward);\r\n        totalStaked = totalStaked - balance;\r\n\r\n        // reseting users staking balance\r\n        stakingBalance[msg.sender] == 0;\r\n\r\n        return balance + reward;\r\n    }\r\n}\r\n",
  "sourcePath": "D:\\BlockChain\\token-staking-test\\contracts\\Staking.sol",
  "compiler": {
    "name": "solc",
    "version": "0.8.11+commit.d7f03943.Emscripten.clang"
  },
  "schemaVersion": "3.4.7",
  "updatedAt": "2022-04-24T17:10:50.134Z",
  "devdoc": {
    "kind": "dev",
    "methods": {},
    "version": 1
  },
  "userdoc": {
    "kind": "user",
    "methods": {},
    "version": 1
  }
}